{
  "contractName": "TodoList",
  "abi": [
    {
      "constant": true,
      "inputs": [],
      "name": "taskCount",
      "outputs": [
        {
          "name": "",
          "type": "uint256"
        }
      ],
      "payable": false,
      "stateMutability": "view",
      "type": "function"
    }
  ],
  "bytecode": "0x608060405260008055348015601357600080fd5b50609e806100226000396000f3fe608060405260043610603f576000357c0100000000000000000000000000000000000000000000000000000000900463ffffffff168063b6cb58a5146044575b600080fd5b348015604f57600080fd5b506056606c565b6040518082815260200191505060405180910390f35b6000548156fea165627a7a72305820af764a1af4297ca77b2e7c9300a2c54ea5a92e485608401c0daaccb9cbd560cf0029",
  "source": "pragma solidity ^0.5.0;\r\n\r\ncontract TodoList {\r\n\r\n    uint public taskCount = 0; //Stable Variable for Todo list counter. Keeps track of number of lists\r\n\r\n}\r\n",
  "sourcePath": "C:/Users/revaz/OneDrive/Desktop/DIES App/projectDIES_backend/eth-test/contracts/TodoList.sol",
  "compiler": {
    "name": "solc",
    "version": "0.5.0+commit.1d4f565a.Emscripten.clang"
  },
  "schemaVersion": "3.0.1",
  "updatedAt": "2021-06-14T15:19:34.086Z",
  "devdoc": {
    "methods": {}
  },
  "userdoc": {
    "methods": {}
  }
}