{
  "contractName": "PostContract",
  "abi": [
    {
      "inputs": [],
      "stateMutability": "nonpayable",
      "type": "constructor"
    },
    {
      "inputs": [],
      "name": "postCount",
      "outputs": [
        {
          "internalType": "uint256",
          "name": "",
          "type": "uint256"
        }
      ],
      "stateMutability": "view",
      "type": "function"
    },
    {
      "inputs": [
        {
          "internalType": "uint256",
          "name": "",
          "type": "uint256"
        }
      ],
      "name": "posts",
      "outputs": [
        {
          "internalType": "uint256",
          "name": "id",
          "type": "uint256"
        },
        {
          "internalType": "string",
          "name": "title",
          "type": "string"
        },
        {
          "internalType": "string",
          "name": "author",
          "type": "string"
        },
        {
          "internalType": "string",
          "name": "message",
          "type": "string"
        },
        {
          "internalType": "string",
          "name": "hashtag",
          "type": "string"
        },
        {
          "internalType": "int256",
          "name": "upVotes",
          "type": "int256"
        },
        {
          "internalType": "int256",
          "name": "downVotes",
          "type": "int256"
        },
        {
          "internalType": "uint256",
          "name": "commentCount",
          "type": "uint256"
        },
        {
          "internalType": "bool",
          "name": "ban",
          "type": "bool"
        }
      ],
      "stateMutability": "view",
      "type": "function"
    },
    {
      "inputs": [
        {
          "internalType": "string",
          "name": "_title",
          "type": "string"
        },
        {
          "internalType": "string",
          "name": "_author",
          "type": "string"
        },
        {
          "internalType": "string",
          "name": "_message",
          "type": "string"
        },
        {
          "internalType": "string",
          "name": "_hashtag",
          "type": "string"
        }
      ],
      "name": "createPost",
      "outputs": [],
      "stateMutability": "nonpayable",
      "type": "function"
    },
    {
      "inputs": [
        {
          "internalType": "uint256",
          "name": "id",
          "type": "uint256"
        },
        {
          "internalType": "int256",
          "name": "i",
          "type": "int256"
        }
      ],
      "name": "upVote",
      "outputs": [],
      "stateMutability": "nonpayable",
      "type": "function"
    },
    {
      "inputs": [
        {
          "internalType": "uint256",
          "name": "id",
          "type": "uint256"
        },
        {
          "internalType": "int256",
          "name": "i",
          "type": "int256"
        }
      ],
      "name": "downVote",
      "outputs": [],
      "stateMutability": "nonpayable",
      "type": "function"
    },
    {
      "inputs": [
        {
          "internalType": "uint256",
          "name": "_commentID",
          "type": "uint256"
        },
        {
          "internalType": "string",
          "name": "_comment_author",
          "type": "string"
        },
        {
          "internalType": "string",
          "name": "_comment_message",
          "type": "string"
        }
      ],
      "name": "addComment",
      "outputs": [],
      "stateMutability": "nonpayable",
      "type": "function"
    }
  ],
  "bytecode": "0x6080604052600080553480156200001557600080fd5b50620000e26040518060400160405280600f81526020017f57656c636f6d65206d65737361676500000000000000000000000000000000008152506040518060400160405280600781526020017f43726561746f7200000000000000000000000000000000000000000000000000815250604051806060016040528060248152602001620010b3602491396040518060400160405280600b81526020017f6861736874616774657374000000000000000000000000000000000000000000815250620000e860201b60201c565b6200036e565b600080815480929190620000fc90620002c2565b91905055506000600160008054815260200190815260200160002090506000548160000181905550848160010190805190602001906200013e929190620001d2565b508381600201908051906020019062000159929190620001d2565b508281600301908051906020019062000174929190620001d2565b50818160040190805190602001906200018f929190620001d2565b5060008160050181905550600081600601819055506000816007018190555060008160080160006101000a81548160ff0219169083151502179055505050505050565b828054620001e0906200028c565b90600052602060002090601f01602090048101928262000204576000855562000250565b82601f106200021f57805160ff191683800117855562000250565b8280016001018555821562000250579182015b828111156200024f57825182559160200191906001019062000232565b5b5090506200025f919062000263565b5090565b5b808211156200027e57600081600090555060010162000264565b5090565b6000819050919050565b60006002820490506001821680620002a557607f821691505b60208210811415620002bc57620002bb6200033f565b5b50919050565b6000620002cf8262000282565b91507fffffffffffffffffffffffffffffffffffffffffffffffffffffffffffffffff82141562000305576200030462000310565b5b600182019050919050565b7f4e487b7100000000000000000000000000000000000000000000000000000000600052601160045260246000fd5b7f4e487b7100000000000000000000000000000000000000000000000000000000600052602260045260246000fd5b610d35806200037e6000396000f3fe608060405234801561001057600080fd5b50600436106100625760003560e01c80630b1e7f83146100675780630d57f91f1461009f5780631521e616146100bb57806317906c2e146100d757806345fffb7f146100f5578063d53d7e6b14610111575b600080fd5b610081600480360381019061007c91906107e9565b61012d565b60405161009699989796959493929190610962565b60405180910390f35b6100b960048036038101906100b49190610712565b6103a8565b005b6100d560048036038101906100d09190610856565b610488565b005b6100df61051c565b6040516100ec9190610947565b60405180910390f35b61010f600480360381019061010a9190610816565b610522565b005b61012b60048036038101906101269190610816565b61058b565b005b600160205280600052604060002060009150905080600001549080600101805461015690610b73565b80601f016020809104026020016040519081016040528092919081815260200182805461018290610b73565b80156101cf5780601f106101a4576101008083540402835291602001916101cf565b820191906000526020600020905b8154815290600101906020018083116101b257829003601f168201915b5050505050908060020180546101e490610b73565b80601f016020809104026020016040519081016040528092919081815260200182805461021090610b73565b801561025d5780601f106102325761010080835404028352916020019161025d565b820191906000526020600020905b81548152906001019060200180831161024057829003601f168201915b50505050509080600301805461027290610b73565b80601f016020809104026020016040519081016040528092919081815260200182805461029e90610b73565b80156102eb5780601f106102c0576101008083540402835291602001916102eb565b820191906000526020600020905b8154815290600101906020018083116102ce57829003601f168201915b50505050509080600401805461030090610b73565b80601f016020809104026020016040519081016040528092919081815260200182805461032c90610b73565b80156103795780601f1061034e57610100808354040283529160200191610379565b820191906000526020600020905b81548152906001019060200180831161035c57829003601f168201915b5050505050908060050154908060060154908060070154908060080160009054906101000a900460ff16905089565b6000808154809291906103ba90610bd6565b91905055506000600160008054815260200190815260200160002090506000548160000181905550848160010190805190602001906103fa9291906105d5565b50838160020190805190602001906104139291906105d5565b508281600301908051906020019061042c9291906105d5565b50818160040190805190602001906104459291906105d5565b5060008160050181905550600081600601819055506000816007018190555060008160080160006101000a81548160ff0219169083151502179055505050505050565b60006001600085815260200190815260200160002090508060070160008154809291906104b490610bd6565b9190505550600081600901600083600701548152602001908152602001600020905081600701548160000181905550838160010190805190602001906104fb9291906105d5565b50828160020190805190602001906105149291906105d5565b505050505050565b60005481565b7fffffffffffffffffffffffffffffffffffffffffffffffffffffffffffffffff8114156105875780600160008481526020019081526020016000206006015461056c9190610a7d565b60016000848152602001908152602001600020600601819055505b5050565b60018114156105d1578060016000848152602001908152602001600020600501546105b69190610a7d565b60016000848152602001908152602001600020600501819055505b5050565b8280546105e190610b73565b90600052602060002090601f016020900481019282610603576000855561064a565b82601f1061061c57805160ff191683800117855561064a565b8280016001018555821561064a579182015b8281111561064957825182559160200191906001019061062e565b5b509050610657919061065b565b5090565b5b8082111561067457600081600090555060010161065c565b5090565b600061068b61068684610a30565b610a0b565b9050828152602081018484840111156106a7576106a6610cb1565b5b6106b2848285610b31565b509392505050565b6000813590506106c981610cd1565b92915050565b600082601f8301126106e4576106e3610cac565b5b81356106f4848260208601610678565b91505092915050565b60008135905061070c81610ce8565b92915050565b6000806000806080858703121561072c5761072b610cbb565b5b600085013567ffffffffffffffff81111561074a57610749610cb6565b5b610756878288016106cf565b945050602085013567ffffffffffffffff81111561077757610776610cb6565b5b610783878288016106cf565b935050604085013567ffffffffffffffff8111156107a4576107a3610cb6565b5b6107b0878288016106cf565b925050606085013567ffffffffffffffff8111156107d1576107d0610cb6565b5b6107dd878288016106cf565b91505092959194509250565b6000602082840312156107ff576107fe610cbb565b5b600061080d848285016106fd565b91505092915050565b6000806040838503121561082d5761082c610cbb565b5b600061083b858286016106fd565b925050602061084c858286016106ba565b9150509250929050565b60008060006060848603121561086f5761086e610cbb565b5b600061087d868287016106fd565b935050602084013567ffffffffffffffff81111561089e5761089d610cb6565b5b6108aa868287016106cf565b925050604084013567ffffffffffffffff8111156108cb576108ca610cb6565b5b6108d7868287016106cf565b9150509250925092565b6108ea81610b11565b82525050565b6108f981610b1d565b82525050565b600061090a82610a61565b6109148185610a6c565b9350610924818560208601610b40565b61092d81610cc0565b840191505092915050565b61094181610b27565b82525050565b600060208201905061095c6000830184610938565b92915050565b600061012082019050610978600083018c610938565b818103602083015261098a818b6108ff565b9050818103604083015261099e818a6108ff565b905081810360608301526109b281896108ff565b905081810360808301526109c681886108ff565b90506109d560a08301876108f0565b6109e260c08301866108f0565b6109ef60e0830185610938565b6109fd6101008301846108e1565b9a9950505050505050505050565b6000610a15610a26565b9050610a218282610ba5565b919050565b6000604051905090565b600067ffffffffffffffff821115610a4b57610a4a610c7d565b5b610a5482610cc0565b9050602081019050919050565b600081519050919050565b600082825260208201905092915050565b6000610a8882610b1d565b9150610a9383610b1d565b9250817f7fffffffffffffffffffffffffffffffffffffffffffffffffffffffffffffff03831360008312151615610ace57610acd610c1f565b5b817f8000000000000000000000000000000000000000000000000000000000000000038312600083121615610b0657610b05610c1f565b5b828201905092915050565b60008115159050919050565b6000819050919050565b6000819050919050565b82818337600083830152505050565b60005b83811015610b5e578082015181840152602081019050610b43565b83811115610b6d576000848401525b50505050565b60006002820490506001821680610b8b57607f821691505b60208210811415610b9f57610b9e610c4e565b5b50919050565b610bae82610cc0565b810181811067ffffffffffffffff82111715610bcd57610bcc610c7d565b5b80604052505050565b6000610be182610b27565b91507fffffffffffffffffffffffffffffffffffffffffffffffffffffffffffffffff821415610c1457610c13610c1f565b5b600182019050919050565b7f4e487b7100000000000000000000000000000000000000000000000000000000600052601160045260246000fd5b7f4e487b7100000000000000000000000000000000000000000000000000000000600052602260045260246000fd5b7f4e487b7100000000000000000000000000000000000000000000000000000000600052604160045260246000fd5b600080fd5b600080fd5b600080fd5b600080fd5b6000601f19601f8301169050919050565b610cda81610b1d565b8114610ce557600080fd5b50565b610cf181610b27565b8114610cfc57600080fd5b5056fea2646970667358221220257c6157d0a46e8c19f503fb49eade41d2e5ff6cd33a0243ff156ba820e797fa64736f6c6343000807003348656c6c6f20576f726c642e2054686973206973206f757220666972737420706f73742e",
  "immutableReferences": {},
  "source": "// SPDX-License-Identifier: MIT\npragma solidity ^0.8.0;\n\ncontract PostContract {\n\n    uint public postCount = 0; \n    \n    struct Comment {\n        uint commentID;\n        string commentAuthor;\n        string commentMessage;\n    }\n\n    struct Post {\n        uint id;\n        string title;\n        string author;\n        string message;\n        string hashtag;\n        int upVotes;\n        int downVotes;\n        uint commentCount;\n        bool ban;\n        mapping(uint => Comment) comments;\n    }\n\n    mapping(uint => Post) public posts;\n\n    constructor() public {\n        createPost(\"Welcome message\",\"Creator\", \"Hello World. This is our first post.\", \"hashtagtest\");\n    }\n \n    function createPost(string memory _title, string memory _author, string memory _message, string memory _hashtag) public {\n        postCount ++;\n        Post storage post = posts[postCount];\n\n        post.id = postCount;\n        post.title = _title;\n        post.author = _author;\n        post.message = _message;\n        post.hashtag = _hashtag;\n        post.upVotes = 0;\n        post.downVotes = 0;\n        post.commentCount = 0;\n        post.ban = false;\n    }\n    \n    function upVote(uint id, int i) public{\n        if (i == 1){\n            posts[id].upVotes = posts[id].upVotes + i;\n        }\n    }\n\n    function downVote(uint id, int i) public{\n        if (i == -1){\n            posts[id].downVotes = posts[id].downVotes + i;\n        }\n    }\n\n    function addComment(uint _commentID, string memory _comment_author, string memory _comment_message) public{\n        Post storage post = posts[_commentID];\n        post.commentCount++;\n        \n        Comment storage comment = post.comments[post.commentCount];\n        comment.commentID = post.commentCount;\n        comment.commentAuthor = _comment_author;\n        comment.commentMessage = _comment_message;\n    }\n}\n",
  "sourcePath": "/Users/amolchagin/Desktop/Projects/dVox-backend/contracts/PostContract.sol",
  "compiler": {
    "name": "solc",
    "version": "0.8.7+commit.e28d00a7.Emscripten.clang"
  },
  "schemaVersion": "3.4.3",
  "updatedAt": "2021-08-13T18:55:58.663Z",
  "devdoc": {
    "kind": "dev",
    "methods": {},
    "version": 1
  },
  "userdoc": {
    "kind": "user",
    "methods": {},
    "version": 1
  }
}