{
  "contractName": "PostContract",
  "abi": [
    {
      "constant": true,
      "inputs": [
        {
          "name": "",
          "type": "uint256"
        }
      ],
      "name": "posts",
      "outputs": [
        {
          "name": "id",
          "type": "uint256"
        },
        {
          "name": "message",
          "type": "string"
        },
        {
          "name": "upvotes",
          "type": "uint256"
        },
        {
          "name": "downvotes",
          "type": "uint256"
        },
        {
          "name": "ban",
          "type": "bool"
        }
      ],
      "payable": false,
      "stateMutability": "view",
      "type": "function",
      "signature": "0x0b1e7f83"
    },
    {
      "constant": true,
      "inputs": [],
      "name": "postCount",
      "outputs": [
        {
          "name": "",
          "type": "uint256"
        }
      ],
      "payable": false,
      "stateMutability": "view",
      "type": "function",
      "signature": "0x17906c2e"
    },
    {
      "inputs": [],
      "payable": false,
      "stateMutability": "nonpayable",
      "type": "constructor",
      "signature": "constructor"
    },
    {
      "constant": false,
      "inputs": [
        {
          "name": "_content",
          "type": "string"
        }
      ],
      "name": "createPost",
      "outputs": [],
      "payable": false,
      "stateMutability": "nonpayable",
      "type": "function",
      "signature": "0xc7303c61"
    }
  ],
  "bytecode": "0x60806040526000805534801561001457600080fd5b50610089606060405190810160405280602481526020017f48656c6c6f20576f726c642e2054686973206973206f7572206669727374207081526020017f6f73742e0000000000000000000000000000000000000000000000000000000081525061008e640100000000026401000000009004565b6101b6565b6000805460019081018083556040805160a0810182528281526020808201878152828401879052606083018790526080830187905293865284815291909420845181559151805192936100e99390850192919091019061011b565b5060408201516002820155606082015160038201556080909101516004909101805460ff191691151591909117905550565b828054600181600116156101000203166002900490600052602060002090601f016020900481019282601f1061015c57805160ff1916838001178555610189565b82800160010185558215610189579182015b8281111561018957825182559160200191906001019061016e565b50610195929150610199565b5090565b6101b391905b80821115610195576000815560010161019f565b90565b610410806101c56000396000f3fe6080604052600436106100565763ffffffff7c01000000000000000000000000000000000000000000000000000000006000350416630b1e7f83811461005b57806317906c2e1461011d578063c7303c6114610144575b600080fd5b34801561006757600080fd5b506100856004803603602081101561007e57600080fd5b50356101f9565b604051808681526020018060200185815260200184815260200183151515158152602001828103825286818151815260200191508051906020019080838360005b838110156100de5781810151838201526020016100c6565b50505050905090810190601f16801561010b5780820380516001836020036101000a031916815260200191505b50965050505050505060405180910390f35b34801561012957600080fd5b506101326102b6565b60408051918252519081900360200190f35b34801561015057600080fd5b506101f76004803603602081101561016757600080fd5b81019060208101813564010000000081111561018257600080fd5b82018360208201111561019457600080fd5b803590602001918460018302840111640100000000831117156101b657600080fd5b91908080601f0160208091040260200160405190810160405280939291908181526020018383808284376000920191909152509295506102bc945050505050565b005b600160208181526000928352604092839020805481840180548651600296821615610100026000190190911695909504601f810185900485028601850190965285855290949193929091908301828280156102955780601f1061026a57610100808354040283529160200191610295565b820191906000526020600020905b81548152906001019060200180831161027857829003601f168201915b50505050600283015460038401546004909401549293909290915060ff1685565b60005481565b6000805460019081018083556040805160a08101825282815260208082018781528284018790526060830187905260808301879052938652848152919094208451815591518051929361031793908501929190910190610349565b5060408201516002820155606082015160038201556080909101516004909101805460ff191691151591909117905550565b828054600181600116156101000203166002900490600052602060002090601f016020900481019282601f1061038a57805160ff19168380011785556103b7565b828001600101855582156103b7579182015b828111156103b757825182559160200191906001019061039c565b506103c39291506103c7565b5090565b6103e191905b808211156103c357600081556001016103cd565b9056fea165627a7a72305820f3f1bddd6c6aebefad4cfa50e956a69657d28674871b0ac30ff60428512d82c00029",
  "source": "// SPDX-License-Identifier: MIT\npragma solidity >=0.4.22 <0.9.0;\n\ncontract PostContract {\n\n    uint public postCount = 0; //Stable Variable for Todo list counter. Keeps track of number of lists\n\n    struct Post {\n        uint id;\n        string message;\n        uint upvotes;\n        uint downvotes;\n        bool ban;\n    }\n\n    mapping(uint => Post) public posts;\n\n    constructor() public {\n        createPost(\"Hello World. This is our first post.\");\n    }\n \n    function createPost(string memory _content) public {\n        postCount ++;\n        posts[postCount] =  Post(postCount, _content, 0, 0, false);\n    }\n}\n",
  "sourcePath": "/Users/amolchagin/Desktop/Projects/projectDIES_backend/contracts/PostContract.sol",
  "compiler": {
    "name": "solc",
    "version": "0.5.0+commit.1d4f565a.Emscripten.clang"
  },
  "schemaVersion": "3.0.1",
  "updatedAt": "2021-06-18T15:02:13.957Z",
  "devdoc": {
    "methods": {}
  },
  "userdoc": {
    "methods": {}
  }
}