{
  "contractName": "PostContract",
  "abi": [
    {
      "inputs": [],
      "stateMutability": "nonpayable",
      "type": "constructor"
    },
    {
      "inputs": [],
      "name": "commentCount2",
      "outputs": [
        {
          "internalType": "uint256",
          "name": "",
          "type": "uint256"
        }
      ],
      "stateMutability": "view",
      "type": "function",
      "constant": true
    },
    {
      "inputs": [],
      "name": "postCount",
      "outputs": [
        {
          "internalType": "uint256",
          "name": "",
          "type": "uint256"
        }
      ],
      "stateMutability": "view",
      "type": "function",
      "constant": true
    },
    {
      "inputs": [
        {
          "internalType": "uint256",
          "name": "",
          "type": "uint256"
        }
      ],
      "name": "posts",
      "outputs": [
        {
          "internalType": "uint256",
          "name": "id",
          "type": "uint256"
        },
        {
          "internalType": "string",
          "name": "title",
          "type": "string"
        },
        {
          "internalType": "string",
          "name": "author",
          "type": "string"
        },
        {
          "internalType": "string",
          "name": "message",
          "type": "string"
        },
        {
          "internalType": "string",
          "name": "hashtag",
          "type": "string"
        },
        {
          "internalType": "int256",
          "name": "upVotes",
          "type": "int256"
        },
        {
          "internalType": "int256",
          "name": "downVotes",
          "type": "int256"
        },
        {
          "internalType": "uint256",
          "name": "commentCount",
          "type": "uint256"
        },
        {
          "internalType": "bool",
          "name": "ban",
          "type": "bool"
        }
      ],
      "stateMutability": "view",
      "type": "function",
      "constant": true
    },
    {
      "inputs": [
        {
          "internalType": "uint256",
          "name": "postID",
          "type": "uint256"
        },
        {
          "internalType": "uint256",
          "name": "commentID",
          "type": "uint256"
        }
      ],
      "name": "getComment",
      "outputs": [
        {
          "internalType": "uint256",
          "name": "id",
          "type": "uint256"
        },
        {
          "internalType": "string",
          "name": "author",
          "type": "string"
        },
        {
          "internalType": "string",
          "name": "message",
          "type": "string"
        }
      ],
      "stateMutability": "view",
      "type": "function",
      "constant": true
    },
    {
      "inputs": [
        {
          "internalType": "string",
          "name": "_title",
          "type": "string"
        },
        {
          "internalType": "string",
          "name": "_author",
          "type": "string"
        },
        {
          "internalType": "string",
          "name": "_message",
          "type": "string"
        },
        {
          "internalType": "string",
          "name": "_hashtag",
          "type": "string"
        }
      ],
      "name": "createPost",
      "outputs": [],
      "stateMutability": "nonpayable",
      "type": "function"
    },
    {
      "inputs": [
        {
          "internalType": "uint256",
          "name": "id",
          "type": "uint256"
        },
        {
          "internalType": "int256",
          "name": "i",
          "type": "int256"
        }
      ],
      "name": "upVote",
      "outputs": [],
      "stateMutability": "nonpayable",
      "type": "function"
    },
    {
      "inputs": [
        {
          "internalType": "uint256",
          "name": "id",
          "type": "uint256"
        },
        {
          "internalType": "int256",
          "name": "i",
          "type": "int256"
        }
      ],
      "name": "downVote",
      "outputs": [],
      "stateMutability": "nonpayable",
      "type": "function"
    },
    {
      "inputs": [
        {
          "internalType": "uint256",
          "name": "_postID",
          "type": "uint256"
        },
        {
          "internalType": "string",
          "name": "_comment_author",
          "type": "string"
        },
        {
          "internalType": "string",
          "name": "_comment_message",
          "type": "string"
        }
      ],
      "name": "addComment",
      "outputs": [],
      "stateMutability": "nonpayable",
      "type": "function"
    }
  ],
  "bytecode": "0x60806040526000805560006001553480156200001a57600080fd5b50620000a96040518060400160405280600f81526020016e57656c636f6d65206d65737361676560881b8152506040518060400160405280600781526020016621b932b0ba37b960c91b81525060405180606001604052806025815260200162000ecb6025913960408051808201909152600b81526a1a185cda1d1859dd195cdd60aa1b6020820152620000f7565b620000f160016040518060400160405280600981526020016820b632b5b9b0b7323960b91b81525060405180606001604052806021815260200162000eaa60219139620001ab565b62000351565b60018054906000620001098362000327565b9091555050600180546000818152600260209081526040909120918255865191926200013c929084019188019062000244565b50835162000154906002830190602087019062000244565b5082516200016c906003830190602086019062000244565b50815162000184906004830190602085019062000244565b50600060058201819055600682018190556007820155600801805460ff1916905550505050565b60008381526002602052604081206007810180549192620001cc8362000327565b9091555050604080516060810182526007830154808252602080830187815283850187905260009283526009860182529390912082518155925180519293926200021d926001850192019062000244565b50604082015180516200023b91600284019160209091019062000244565b50505050505050565b8280546200025290620002ea565b90600052602060002090601f016020900481019282620002765760008555620002c1565b82601f106200029157805160ff1916838001178555620002c1565b82800160010185558215620002c1579182015b82811115620002c1578251825591602001919060010190620002a4565b50620002cf929150620002d3565b5090565b5b80821115620002cf5760008155600101620002d4565b600181811c90821680620002ff57607f821691505b602082108114156200032157634e487b7160e01b600052602260045260246000fd5b50919050565b60006000198214156200034a57634e487b7160e01b600052601160045260246000fd5b5060010190565b610b4980620003616000396000f3fe608060405234801561001057600080fd5b50600436106100875760003560e01c806317906c2e1161005b57806317906c2e146100f857806345fffb7f146101015780634889275314610114578063d53d7e6b1461013657600080fd5b806265fab61461008c5780630b1e7f83146100a85780630d57f91f146100d05780631521e616146100e5575b600080fd5b61009560005481565b6040519081526020015b60405180910390f35b6100bb6100b63660046108a4565b610149565b60405161009f999897969594939291906109ce565b6100e36100de3660046107f7565b6103b4565b005b6100e36100f33660046108df565b61045e565b61009560015481565b6100e361010f3660046108bd565b6104f1565b6101276101223660046108bd565b61052f565b60405161009f93929190610999565b6100e36101443660046108bd565b610695565b6002602052600090815260409020805460018201805491929161016b90610a91565b80601f016020809104026020016040519081016040528092919081815260200182805461019790610a91565b80156101e45780601f106101b9576101008083540402835291602001916101e4565b820191906000526020600020905b8154815290600101906020018083116101c757829003601f168201915b5050505050908060020180546101f990610a91565b80601f016020809104026020016040519081016040528092919081815260200182805461022590610a91565b80156102725780601f1061024757610100808354040283529160200191610272565b820191906000526020600020905b81548152906001019060200180831161025557829003601f168201915b50505050509080600301805461028790610a91565b80601f01602080910402602001604051908101604052809291908181526020018280546102b390610a91565b80156103005780601f106102d557610100808354040283529160200191610300565b820191906000526020600020905b8154815290600101906020018083116102e357829003601f168201915b50505050509080600401805461031590610a91565b80601f016020809104026020016040519081016040528092919081815260200182805461034190610a91565b801561038e5780601f106103635761010080835404028352916020019161038e565b820191906000526020600020905b81548152906001019060200180831161037157829003601f168201915b505050506005830154600684015460078501546008909501549394919390925060ff1689565b600180549060006103c483610acc565b9091555050600180546000818152600260209081526040909120918255865191926103f592908401918801906106d1565b50835161040b90600283019060208701906106d1565b50825161042190600383019060208601906106d1565b50815161043790600483019060208501906106d1565b50600060058201819055600682018190556007820155600801805460ff1916905550505050565b6000838152600260205260408120600781018054919261047d83610acc565b9091555050604080516060810182526007830154808252602080830187815283850187905260009283526009860182529390912082518155925180519293926104cc92600185019201906106d1565b50604082015180516104e89160028401916020909101906106d1565b50505050505050565b80600019141561052b57600082815260026020526040902060060154610518908290610a50565b6000838152600260205260409020600601555b5050565b60008281526002602090815260408083208484526009019091529020805460019091018054606091829161056290610a91565b80601f016020809104026020016040519081016040528092919081815260200182805461058e90610a91565b80156105db5780601f106105b0576101008083540402835291602001916105db565b820191906000526020600020905b8154815290600101906020018083116105be57829003601f168201915b50505060008881526002602081815260408084208b85526009019091529091200180549395509261060e92509050610a91565b80601f016020809104026020016040519081016040528092919081815260200182805461063a90610a91565b80156106875780601f1061065c57610100808354040283529160200191610687565b820191906000526020600020905b81548152906001019060200180831161066a57829003601f168201915b505050505090509250925092565b806001141561052b576000828152600260205260409020600501546106bb908290610a50565b6000838152600260205260409020600501555050565b8280546106dd90610a91565b90600052602060002090601f0160209004810192826106ff5760008555610745565b82601f1061071857805160ff1916838001178555610745565b82800160010185558215610745579182015b8281111561074557825182559160200191906001019061072a565b50610751929150610755565b5090565b5b808211156107515760008155600101610756565b600082601f83011261077b57600080fd5b813567ffffffffffffffff8082111561079657610796610afd565b604051601f8301601f19908116603f011681019082821181831017156107be576107be610afd565b816040528381528660208588010111156107d757600080fd5b836020870160208301376000602085830101528094505050505092915050565b6000806000806080858703121561080d57600080fd5b843567ffffffffffffffff8082111561082557600080fd5b6108318883890161076a565b9550602087013591508082111561084757600080fd5b6108538883890161076a565b9450604087013591508082111561086957600080fd5b6108758883890161076a565b9350606087013591508082111561088b57600080fd5b506108988782880161076a565b91505092959194509250565b6000602082840312156108b657600080fd5b5035919050565b600080604083850312156108d057600080fd5b50508035926020909101359150565b6000806000606084860312156108f457600080fd5b83359250602084013567ffffffffffffffff8082111561091357600080fd5b61091f8783880161076a565b9350604086013591508082111561093557600080fd5b506109428682870161076a565b9150509250925092565b6000815180845260005b8181101561097257602081850181015186830182015201610956565b81811115610984576000602083870101525b50601f01601f19169290920160200192915050565b8381526060602082015260006109b2606083018561094c565b82810360408401526109c4818561094c565b9695505050505050565b60006101208b83528060208401526109e88184018c61094c565b905082810360408401526109fc818b61094c565b90508281036060840152610a10818a61094c565b90508281036080840152610a24818961094c565b9150508560a08301528460c08301528360e08301528215156101008301529a9950505050505050505050565b600080821280156001600160ff1b0384900385131615610a7257610a72610ae7565b600160ff1b8390038412811615610a8b57610a8b610ae7565b50500190565b600181811c90821680610aa557607f821691505b60208210811415610ac657634e487b7160e01b600052602260045260246000fd5b50919050565b6000600019821415610ae057610ae0610ae7565b5060010190565b634e487b7160e01b600052601160045260246000fd5b634e487b7160e01b600052604160045260246000fdfea2646970667358221220b60dddc60233de9135f5e3a4c9b69b6dcc000e30f5cd093802f98014134ec00664736f6c6343000807003348656c6c6f2c20746869732069732074686520666972737420636f6d6d656e742148656c6c6f20576f726c6421212054686973206973206f757220666972737420706f73742e",
  "immutableReferences": {},
  "source": "// SPDX-License-Identifier: MIT\npragma solidity ^0.8.7;\n\ncontract PostContract {\n    uint public commentCount2 = 0; \n\n    uint public postCount = 0; \n    \n    struct Comment {\n        uint commentID;\n        string commentAuthor;\n        string commentMessage;\n    }\n\n    struct Post {\n        uint id;\n        string title;\n        string author;\n        string message;\n        string hashtag;\n        int upVotes;\n        int downVotes;\n        uint commentCount;\n        bool ban;\n        mapping (uint => Comment) comments;\n    }\n\n    mapping(uint => Post) public posts;\n\n    constructor() {\n        createPost(\"Welcome message\",\"Creator\", \"Hello World!! This is our first post.\", \"hashtagtest\");\n        addComment(1, \"Aleksandr\", \"Hello, this is the first comment!\");\n    }\n \n    function getComment(uint postID, uint commentID) public view returns(uint id, string memory author, string memory message) {\n        id = posts[postID].comments[commentID].commentID;\n        author = posts[postID].comments[commentID].commentAuthor;\n        message = posts[postID].comments[commentID].commentMessage;\n        return (id, author, message);\n    }\n\n    function createPost(string memory _title, string memory _author, string memory _message, string memory _hashtag) public {\n        postCount ++;\n        Post storage post = posts[postCount];\n        post.id = postCount;\n        post.title = _title;\n        post.author = _author;\n        post.message = _message;\n        post.hashtag = _hashtag;\n        post.upVotes = 0;\n        post.downVotes = 0;\n        post.commentCount = 0;\n        post.ban = false;\n    }\n\n    function upVote(uint id, int i) public{\n        if (i == 1){\n            posts[id].upVotes = posts[id].upVotes + i;\n        }\n    }\n\n    function downVote(uint id, int i) public{\n        if (i == -1){\n            posts[id].downVotes = posts[id].downVotes + i;\n        }\n    }\n\n     function addComment(uint _postID, string memory _comment_author, string memory _comment_message) public {\n         Post storage post = posts[_postID];\n         post.commentCount++;\n         post.comments[post.commentCount] = Comment({commentID: post.commentCount, commentAuthor:_comment_author, commentMessage: _comment_message});\n     }\n\n}\n",
  "sourcePath": "/Users/amolchagin/Desktop/Projects/dVox-backend/contracts/PostContract.sol",
  "compiler": {
    "name": "solc",
    "version": "0.8.7+commit.e28d00a7.Emscripten.clang"
  },
  "schemaVersion": "3.4.3",
  "updatedAt": "2021-08-13T21:15:35.937Z",
  "networkType": "ethereum",
  "devdoc": {
    "kind": "dev",
    "methods": {},
    "version": 1
  },
  "userdoc": {
    "kind": "user",
    "methods": {},
    "version": 1
  }
}