{
  "contractName": "PostContract",
  "abi": [
    {
      "constant": true,
      "inputs": [
        {
          "name": "",
          "type": "uint256"
        }
      ],
      "name": "posts",
      "outputs": [
        {
          "name": "id",
          "type": "uint256"
        },
        {
          "name": "title",
          "type": "string"
        },
        {
          "name": "author",
          "type": "string"
        },
        {
          "name": "message",
          "type": "string"
        },
        {
          "name": "votes",
          "type": "int256"
        },
        {
          "name": "ban",
          "type": "bool"
        }
      ],
      "payable": false,
      "stateMutability": "view",
      "type": "function"
    },
    {
      "constant": true,
      "inputs": [],
      "name": "postCount",
      "outputs": [
        {
          "name": "",
          "type": "uint256"
        }
      ],
      "payable": false,
      "stateMutability": "view",
      "type": "function"
    },
    {
      "inputs": [],
      "payable": false,
      "stateMutability": "nonpayable",
      "type": "constructor"
    },
    {
      "constant": false,
      "inputs": [
        {
          "name": "_title",
          "type": "string"
        },
        {
          "name": "_author",
          "type": "string"
        },
        {
          "name": "_content",
          "type": "string"
        }
      ],
      "name": "createPost",
      "outputs": [],
      "payable": false,
      "stateMutability": "nonpayable",
      "type": "function"
    },
    {
      "constant": false,
      "inputs": [
        {
          "name": "id",
          "type": "uint256"
        },
        {
          "name": "i",
          "type": "int256"
        }
      ],
      "name": "addVote",
      "outputs": [],
      "payable": false,
      "stateMutability": "nonpayable",
      "type": "function"
    }
  ],
  "bytecode": "0x60806040526000805534801561001457600080fd5b506100f56040805190810160405280600f81526020017f57656c636f6d65206d65737361676500000000000000000000000000000000008152506040805190810160405280600781526020017f43726561746f7200000000000000000000000000000000000000000000000000815250606060405190810160405280602481526020017f48656c6c6f20576f726c642e2054686973206973206f7572206669727374207081526020017f6f73742e000000000000000000000000000000000000000000000000000000008152506100fa640100000000026401000000009004565b610259565b6000805460019081018083556040805160c0810182528281526020808201898152828401899052606083018890526080830187905260a08301879052938652848152919094208451815591518051929361015c939085019291909101906101be565b50604082015180516101789160028401916020909101906101be565b50606082015180516101949160038401916020909101906101be565b506080820151600482015560a0909101516005909101805460ff1916911515919091179055505050565b828054600181600116156101000203166002900490600052602060002090601f016020900481019282601f106101ff57805160ff191683800117855561022c565b8280016001018555821561022c579182015b8281111561022c578251825591602001919060010190610211565b5061023892915061023c565b5090565b61025691905b808211156102385760008155600101610242565b90565b6107ca806102686000396000f3fe6080604052600436106100615763ffffffff7c01000000000000000000000000000000000000000000000000000000006000350416630b1e7f83811461006657806317906c2e146101ed578063e8a4a1eb14610214578063f63ee2c2146103d7575b600080fd5b34801561007257600080fd5b506100906004803603602081101561008957600080fd5b5035610407565b6040518087815260200180602001806020018060200186815260200185151515158152602001848103845289818151815260200191508051906020019080838360005b838110156100eb5781810151838201526020016100d3565b50505050905090810190601f1680156101185780820380516001836020036101000a031916815260200191505b5084810383528851815288516020918201918a019080838360005b8381101561014b578181015183820152602001610133565b50505050905090810190601f1680156101785780820380516001836020036101000a031916815260200191505b50848103825287518152875160209182019189019080838360005b838110156101ab578181015183820152602001610193565b50505050905090810190601f1680156101d85780820380516001836020036101000a031916815260200191505b50995050505050505050505060405180910390f35b3480156101f957600080fd5b506102026105df565b60408051918252519081900360200190f35b34801561022057600080fd5b506103d56004803603606081101561023757600080fd5b81019060208101813564010000000081111561025257600080fd5b82018360208201111561026457600080fd5b8035906020019184600183028401116401000000008311171561028657600080fd5b91908080601f01602080910402602001604051908101604052809392919081815260200183838082843760009201919091525092959493602081019350359150506401000000008111156102d957600080fd5b8201836020820111156102eb57600080fd5b8035906020019184600183028401116401000000008311171561030d57600080fd5b91908080601f016020809104026020016040519081016040528093929190818152602001838380828437600092019190915250929594936020810193503591505064010000000081111561036057600080fd5b82018360208201111561037257600080fd5b8035906020019184600183028401116401000000008311171561039457600080fd5b91908080601f0160208091040260200160405190810160405280939291908181526020018383808284376000920191909152509295506105e5945050505050565b005b3480156103e357600080fd5b506103d5600480360360408110156103fa57600080fd5b50803590602001356106a9565b600160208181526000928352604092839020805481840180548651600296821615610100026000190190911695909504601f810185900485028601850190965285855290949193929091908301828280156104a35780601f10610478576101008083540402835291602001916104a3565b820191906000526020600020905b81548152906001019060200180831161048657829003601f168201915b50505060028085018054604080516020601f60001961010060018716150201909416959095049283018590048502810185019091528181529596959450909250908301828280156105355780601f1061050a57610100808354040283529160200191610535565b820191906000526020600020905b81548152906001019060200180831161051857829003601f168201915b5050505060038301805460408051602060026001851615610100026000190190941693909304601f81018490048402820184019092528181529495949350908301828280156105c55780601f1061059a576101008083540402835291602001916105c5565b820191906000526020600020905b8154815290600101906020018083116105a857829003601f168201915b50505050600483015460059093015491929160ff16905086565b60005481565b6000805460019081018083556040805160c0810182528281526020808201898152828401899052606083018890526080830187905260a08301879052938652848152919094208451815591518051929361064793908501929190910190610703565b5060408201518051610663916002840191602090910190610703565b506060820151805161067f916003840191602090910190610703565b506080820151600482015560a0909101516005909101805460ff1916911515919091179055505050565b80600114806106b9575080600019145b156106ff5760008281526001602052604090206004018054820190819055600919126106ff576000828152600160208190526040909120600501805460ff191690911790555b5050565b828054600181600116156101000203166002900490600052602060002090601f016020900481019282601f1061074457805160ff1916838001178555610771565b82800160010185558215610771579182015b82811115610771578251825591602001919060010190610756565b5061077d929150610781565b5090565b61079b91905b8082111561077d5760008155600101610787565b9056fea165627a7a72305820b53a9ee348f183d4fab4a9a0fcdec6fb07bd046e458d141bdd646b6640b73ace0029",
  "source": "// SPDX-License-Identifier: MIT\npragma solidity >=0.4.22 <0.9.0;\n\ncontract PostContract {\n\n    uint public postCount = 0; //Stable Variable for Todo list counter. Keeps track of number of lists\n\n    struct Post {\n        uint id;\n        string title;\n        string author;\n        string message;\n        int votes;\n        bool ban;\n    }\n\n    mapping(uint => Post) public posts;\n\n    constructor() public {\n        createPost(\"Welcome message\",\"Creator\", \"Hello World. This is our first post.\");\n    }\n \n    function createPost(string memory _title, string memory _author, string memory _content) public {\n        postCount ++;\n        posts[postCount] =  Post(postCount, _title, _author, _content, 0, false);\n    }\n    \n    function addVote(uint id, int i) public{\n        if (i == 1 || i == -1){\n            posts[id].votes = posts[id].votes + i;\n            if (posts[id].votes <= -10)\n                posts[id].ban = true;\n        }\n    }\n}\n",
  "sourcePath": "/Users/amolchagin/Desktop/Projects/projectDIES_backend/contracts/PostContract.sol",
  "compiler": {
    "name": "solc",
    "version": "0.5.0+commit.1d4f565a.Emscripten.clang"
  },
  "schemaVersion": "3.0.1",
  "updatedAt": "2021-06-27T19:30:58.171Z",
  "devdoc": {
    "methods": {}
  },
  "userdoc": {
    "methods": {}
  }
}