{
  "contractName": "PostContract",
  "abi": [
    {
      "constant": true,
      "inputs": [
        {
          "name": "",
          "type": "uint256"
        }
      ],
      "name": "posts",
      "outputs": [
        {
          "name": "id",
          "type": "uint256"
        },
        {
          "name": "author",
          "type": "string"
        },
        {
          "name": "message",
          "type": "string"
        },
        {
          "name": "votes",
          "type": "int256"
        },
        {
          "name": "ban",
          "type": "bool"
        }
      ],
      "payable": false,
      "stateMutability": "view",
      "type": "function"
    },
    {
      "constant": true,
      "inputs": [],
      "name": "postCount",
      "outputs": [
        {
          "name": "",
          "type": "uint256"
        }
      ],
      "payable": false,
      "stateMutability": "view",
      "type": "function"
    },
    {
      "inputs": [],
      "payable": false,
      "stateMutability": "nonpayable",
      "type": "constructor"
    },
    {
      "constant": false,
      "inputs": [
        {
          "name": "_author",
          "type": "string"
        },
        {
          "name": "_content",
          "type": "string"
        }
      ],
      "name": "createPost",
      "outputs": [],
      "payable": false,
      "stateMutability": "nonpayable",
      "type": "function"
    },
    {
      "constant": false,
      "inputs": [
        {
          "name": "id",
          "type": "uint256"
        },
        {
          "name": "i",
          "type": "int256"
        }
      ],
      "name": "addVote",
      "outputs": [],
      "payable": false,
      "stateMutability": "nonpayable",
      "type": "function"
    }
  ],
  "bytecode": "0x60806040526000805534801561001457600080fd5b506100bf6040805190810160405280600781526020017f43726561746f7200000000000000000000000000000000000000000000000000815250606060405190810160405280602481526020017f48656c6c6f20576f726c642e2054686973206973206f7572206669727374207081526020017f6f73742e000000000000000000000000000000000000000000000000000000008152506100c4640100000000026401000000009004565b6101ff565b6000805460019081018083556040805160a08101825282815260208082018881528284018890526060830187905260808301879052938652848152919094208451815591518051929361011f93908501929190910190610164565b506040820151805161013b916002840191602090910190610164565b50606082015160038201556080909101516004909101805460ff19169115159190911790555050565b828054600181600116156101000203166002900490600052602060002090601f016020900481019282601f106101a557805160ff19168380011785556101d2565b828001600101855582156101d2579182015b828111156101d25782518255916020019190600101906101b7565b506101de9291506101e2565b5090565b6101fc91905b808211156101de57600081556001016101e8565b90565b6106148061020e6000396000f3fe6080604052600436106100615763ffffffff7c01000000000000000000000000000000000000000000000000000000006000350416630b1e7f83811461006657806317906c2e14610187578063392338f5146101ae578063f63ee2c2146102ea575b600080fd5b34801561007257600080fd5b506100906004803603602081101561008957600080fd5b503561031a565b60405180868152602001806020018060200185815260200184151515158152602001838103835287818151815260200191508051906020019080838360005b838110156100e75781810151838201526020016100cf565b50505050905090810190601f1680156101145780820380516001836020036101000a031916815260200191505b50838103825286518152865160209182019188019080838360005b8381101561014757818101518382015260200161012f565b50505050905090810190601f1680156101745780820380516001836020036101000a031916815260200191505b5097505050505050505060405180910390f35b34801561019357600080fd5b5061019c610462565b60408051918252519081900360200190f35b3480156101ba57600080fd5b506102e8600480360360408110156101d157600080fd5b8101906020810181356401000000008111156101ec57600080fd5b8201836020820111156101fe57600080fd5b8035906020019184600183028401116401000000008311171561022057600080fd5b91908080601f016020809104026020016040519081016040528093929190818152602001838380828437600092019190915250929594936020810193503591505064010000000081111561027357600080fd5b82018360208201111561028557600080fd5b803590602001918460018302840111640100000000831117156102a757600080fd5b91908080601f016020809104026020016040519081016040528093929190818152602001838380828437600092019190915250929550610468945050505050565b005b3480156102f657600080fd5b506102e86004803603604081101561030d57600080fd5b5080359060200135610508565b600160208181526000928352604092839020805481840180548651600296821615610100026000190190911695909504601f810185900485028601850190965285855290949193929091908301828280156103b65780601f1061038b576101008083540402835291602001916103b6565b820191906000526020600020905b81548152906001019060200180831161039957829003601f168201915b50505060028085018054604080516020601f60001961010060018716150201909416959095049283018590048502810185019091528181529596959450909250908301828280156104485780601f1061041d57610100808354040283529160200191610448565b820191906000526020600020905b81548152906001019060200180831161042b57829003601f168201915b50505050600383015460049093015491929160ff16905085565b60005481565b6000805460019081018083556040805160a0810182528281526020808201888152828401889052606083018790526080830187905293865284815291909420845181559151805192936104c39390850192919091019061054d565b50604082015180516104df91600284019160209091019061054d565b50606082015160038201556080909101516004909101805460ff19169115159190911790555050565b6000828152600160205260409020600301805482019081905560091912610549576000828152600160208190526040909120600401805460ff191690911790555b5050565b828054600181600116156101000203166002900490600052602060002090601f016020900481019282601f1061058e57805160ff19168380011785556105bb565b828001600101855582156105bb579182015b828111156105bb5782518255916020019190600101906105a0565b506105c79291506105cb565b5090565b6105e591905b808211156105c757600081556001016105d1565b9056fea165627a7a72305820865f9defe3d5769d728fbc1dc4681d9c456a68d5aa10da985cbce9cca1e8fb490029",
  "source": "// SPDX-License-Identifier: MIT\npragma solidity >=0.4.22 <0.9.0;\n\ncontract PostContract {\n\n    uint public postCount = 0; //Stable Variable for Todo list counter. Keeps track of number of lists\n\n    struct Post {\n        uint id;\n        string author;\n        string message;\n        int votes;\n        bool ban;\n    }\n\n    mapping(uint => Post) public posts;\n\n    constructor() public {\n        createPost(\"Creator\", \"Hello World. This is our first post.\");\n    }\n \n    function createPost(string memory _author, string memory _content) public {\n        postCount ++;\n        posts[postCount] =  Post(postCount, _author, _content, 0, false);\n    }\n    \n    function addVote(uint id, int i) public{\n        posts[id].votes = posts[id].votes + i;\n        if (posts[id].votes <= -10)\n            posts[id].ban = true;\n    }\n}\n",
  "sourcePath": "/Users/amolchagin/Desktop/Projects/projectDIES_backend/contracts/PostContract.sol",
  "compiler": {
    "name": "solc",
    "version": "0.5.0+commit.1d4f565a.Emscripten.clang"
  },
  "schemaVersion": "3.0.1",
  "updatedAt": "2021-06-18T17:29:56.054Z",
  "devdoc": {
    "methods": {}
  },
  "userdoc": {
    "methods": {}
  }
}