{
  "contractName": "PostContract",
  "abi": [
    {
      "inputs": [],
      "stateMutability": "nonpayable",
      "type": "constructor"
    },
    {
      "inputs": [],
      "name": "postCount",
      "outputs": [
        {
          "internalType": "uint256",
          "name": "",
          "type": "uint256"
        }
      ],
      "stateMutability": "view",
      "type": "function",
      "constant": true
    },
    {
      "inputs": [
        {
          "internalType": "uint256",
          "name": "",
          "type": "uint256"
        }
      ],
      "name": "posts",
      "outputs": [
        {
          "internalType": "uint256",
          "name": "id",
          "type": "uint256"
        },
        {
          "internalType": "string",
          "name": "title",
          "type": "string"
        },
        {
          "internalType": "string",
          "name": "author",
          "type": "string"
        },
        {
          "internalType": "string",
          "name": "message",
          "type": "string"
        },
        {
          "internalType": "string",
          "name": "hashtag",
          "type": "string"
        },
        {
          "internalType": "uint256",
          "name": "commentCount",
          "type": "uint256"
        },
        {
          "internalType": "bool",
          "name": "ban",
          "type": "bool"
        }
      ],
      "stateMutability": "view",
      "type": "function",
      "constant": true
    },
    {
      "inputs": [
        {
          "internalType": "string",
          "name": "_title",
          "type": "string"
        },
        {
          "internalType": "string",
          "name": "_author",
          "type": "string"
        },
        {
          "internalType": "string",
          "name": "_message",
          "type": "string"
        },
        {
          "internalType": "string",
          "name": "_hashtag",
          "type": "string"
        }
      ],
      "name": "createPost",
      "outputs": [],
      "stateMutability": "nonpayable",
      "type": "function"
    },
    {
      "inputs": [
        {
          "internalType": "uint256",
          "name": "_postID",
          "type": "uint256"
        },
        {
          "internalType": "string",
          "name": "_comment_author",
          "type": "string"
        },
        {
          "internalType": "string",
          "name": "_comment_message",
          "type": "string"
        }
      ],
      "name": "addComment",
      "outputs": [],
      "stateMutability": "nonpayable",
      "type": "function"
    },
    {
      "inputs": [
        {
          "internalType": "uint256",
          "name": "postID",
          "type": "uint256"
        },
        {
          "internalType": "uint256",
          "name": "commentID",
          "type": "uint256"
        }
      ],
      "name": "getComment",
      "outputs": [
        {
          "internalType": "uint256",
          "name": "id",
          "type": "uint256"
        },
        {
          "internalType": "string",
          "name": "author",
          "type": "string"
        },
        {
          "internalType": "string",
          "name": "message",
          "type": "string"
        },
        {
          "internalType": "bool",
          "name": "ban",
          "type": "bool"
        }
      ],
      "stateMutability": "view",
      "type": "function",
      "constant": true
    },
    {
      "inputs": [
        {
          "internalType": "uint256",
          "name": "postID",
          "type": "uint256"
        }
      ],
      "name": "banPost",
      "outputs": [],
      "stateMutability": "nonpayable",
      "type": "function"
    },
    {
      "inputs": [
        {
          "internalType": "uint256",
          "name": "postID",
          "type": "uint256"
        },
        {
          "internalType": "uint256",
          "name": "commentID",
          "type": "uint256"
        }
      ],
      "name": "banComment",
      "outputs": [],
      "stateMutability": "nonpayable",
      "type": "function"
    }
  ],
  "bytecode": "0x6080604052600080553480156200001557600080fd5b50620000a46040518060400160405280600f81526020016e57656c636f6d65206d65737361676560881b8152506040518060400160405280600781526020016621b932b0ba37b960c91b81525060405180606001604052806025815260200162000e3c6025913960408051808201909152600b81526a1a185cda1d1859dd195cdd60aa1b6020820152620000f2565b620000ec60016040518060400160405280600981526020016820b632b5b9b0b7323960b91b81525060405180606001604052806021815260200162000e1b6021913962000196565b6200035c565b600080549080620001038362000332565b90915550506000805480825260016020818152604090932091825586519192620001359291840191908801906200024f565b5083516200014d90600283019060208701906200024f565b5082516200016590600383019060208601906200024f565b5081516200017d90600483019060208501906200024f565b5060006005820155600601805460ff1916905550505050565b60008381526001602052604081206005810180549192620001b78362000332565b909155505060408051608081018252600583015480825260208083018781528385018790526000606085018190529283526007860182529390912082518155925180519293926200020f92600185019201906200024f565b50604082015180516200022d9160028401916020909101906200024f565b50606091909101516003909101805460ff191691151591909117905550505050565b8280546200025d90620002f5565b90600052602060002090601f016020900481019282620002815760008555620002cc565b82601f106200029c57805160ff1916838001178555620002cc565b82800160010185558215620002cc579182015b82811115620002cc578251825591602001919060010190620002af565b50620002da929150620002de565b5090565b5b80821115620002da5760008155600101620002df565b600181811c908216806200030a57607f821691505b602082108114156200032c57634e487b7160e01b600052602260045260246000fd5b50919050565b60006000198214156200035557634e487b7160e01b600052601160045260246000fd5b5060010190565b610aaf806200036c6000396000f3fe608060405234801561001057600080fd5b506004361061007d5760003560e01c806317906c2e1161005b57806317906c2e146100d957806348892753146100f0578063d7bafcf114610113578063dae39a741461015357600080fd5b80630b1e7f83146100825780630d57f91f146100b15780631521e616146100c6575b600080fd5b61009561009036600461085c565b610184565b6040516100a89796959493929190610990565b60405180910390f35b6100c46100bf3660046107af565b6103e2565b005b6100c46100d4366004610875565b61047c565b6100e260005481565b6040519081526020016100a8565b6101036100fe3660046108e2565b61052f565b6040516100a89493929190610951565b6100c46101213660046108e2565b6000918252600160209081526040808420928452600790920190529020600301805460ff81161560ff19909116179055565b6100c461016136600461085c565b6000908152600160205260409020600601805460ff19811660ff90911615179055565b6001602081905260009182526040909120805491810180546101a5906109ff565b80601f01602080910402602001604051908101604052809291908181526020018280546101d1906109ff565b801561021e5780601f106101f35761010080835404028352916020019161021e565b820191906000526020600020905b81548152906001019060200180831161020157829003601f168201915b505050505090806002018054610233906109ff565b80601f016020809104026020016040519081016040528092919081815260200182805461025f906109ff565b80156102ac5780601f10610281576101008083540402835291602001916102ac565b820191906000526020600020905b81548152906001019060200180831161028f57829003601f168201915b5050505050908060030180546102c1906109ff565b80601f01602080910402602001604051908101604052809291908181526020018280546102ed906109ff565b801561033a5780601f1061030f5761010080835404028352916020019161033a565b820191906000526020600020905b81548152906001019060200180831161031d57829003601f168201915b50505050509080600401805461034f906109ff565b80601f016020809104026020016040519081016040528092919081815260200182805461037b906109ff565b80156103c85780601f1061039d576101008083540402835291602001916103c8565b820191906000526020600020905b8154815290600101906020018083116103ab57829003601f168201915b50505050600583015460069093015491929160ff16905087565b6000805490806103f183610a3a565b90915550506000805480825260016020818152604090932091825586519192610421929184019190880190610689565b5083516104379060028301906020870190610689565b50825161044d9060038301906020860190610689565b5081516104639060048301906020850190610689565b5060006005820155600601805460ff1916905550505050565b6000838152600160205260408120600581018054919261049b83610a3a565b909155505060408051608081018252600583015480825260208083018781528385018790526000606085018190529283526007860182529390912082518155925180519293926104f19260018501920190610689565b506040820151805161050d916002840191602090910190610689565b50606091909101516003909101805460ff191691151591909117905550505050565b600082815260016020818152604080842085855260070190915282208054918101805492936060938493919290610565906109ff565b80601f0160208091040260200160405190810160405280929190818152602001828054610591906109ff565b80156105de5780601f106105b3576101008083540402835291602001916105de565b820191906000526020600020905b8154815290600101906020018083116105c157829003601f168201915b505050505093508060020180546105f4906109ff565b80601f0160208091040260200160405190810160405280929190818152602001828054610620906109ff565b801561066d5780601f106106425761010080835404028352916020019161066d565b820191906000526020600020905b81548152906001019060200180831161065057829003601f168201915b5050506003909301549194505060ff1691505092959194509250565b828054610695906109ff565b90600052602060002090601f0160209004810192826106b757600085556106fd565b82601f106106d057805160ff19168380011785556106fd565b828001600101855582156106fd579182015b828111156106fd5782518255916020019190600101906106e2565b5061070992915061070d565b5090565b5b80821115610709576000815560010161070e565b600082601f83011261073357600080fd5b813567ffffffffffffffff8082111561074e5761074e610a63565b604051601f8301601f19908116603f0116810190828211818310171561077657610776610a63565b8160405283815286602085880101111561078f57600080fd5b836020870160208301376000602085830101528094505050505092915050565b600080600080608085870312156107c557600080fd5b843567ffffffffffffffff808211156107dd57600080fd5b6107e988838901610722565b955060208701359150808211156107ff57600080fd5b61080b88838901610722565b9450604087013591508082111561082157600080fd5b61082d88838901610722565b9350606087013591508082111561084357600080fd5b5061085087828801610722565b91505092959194509250565b60006020828403121561086e57600080fd5b5035919050565b60008060006060848603121561088a57600080fd5b83359250602084013567ffffffffffffffff808211156108a957600080fd5b6108b587838801610722565b935060408601359150808211156108cb57600080fd5b506108d886828701610722565b9150509250925092565b600080604083850312156108f557600080fd5b50508035926020909101359150565b6000815180845260005b8181101561092a5760208185018101518683018201520161090e565b8181111561093c576000602083870101525b50601f01601f19169290920160200192915050565b84815260806020820152600061096a6080830186610904565b828103604084015261097c8186610904565b915050821515606083015295945050505050565b87815260e0602082015260006109a960e0830189610904565b82810360408401526109bb8189610904565b905082810360608401526109cf8188610904565b905082810360808401526109e38187610904565b60a0840195909552505090151560c09091015295945050505050565b600181811c90821680610a1357607f821691505b60208210811415610a3457634e487b7160e01b600052602260045260246000fd5b50919050565b6000600019821415610a5c57634e487b7160e01b600052601160045260246000fd5b5060010190565b634e487b7160e01b600052604160045260246000fdfea2646970667358221220d42cf287c77687e9cef498d83c2341576f6aaa015a5b86dea830d6eadff4aeff64736f6c6343000807003348656c6c6f2c20746869732069732074686520666972737420636f6d6d656e742148656c6c6f20576f726c6421212054686973206973206f757220666972737420706f73742e",
  "immutableReferences": {},
  "source": "// SPDX-License-Identifier: MIT\npragma solidity ^0.8.7;\n\ncontract PostContract {\n\n    uint public postCount = 0; \n    \n    struct Comment {\n        uint commentID;\n        string commentAuthor;\n        string commentMessage;\n        bool commentBan;\n    }\n\n    struct Post {\n        uint id;\n        string title;\n        string author;\n        string message;\n        string hashtag;\n        uint commentCount;\n        bool ban;\n        mapping (uint => Comment) comments;\n    }\n\n    mapping(uint => Post) public posts;\n\n    constructor() {\n        createPost(\"Welcome message\",\"Creator\", \"Hello World!! This is our first post.\", \"hashtagtest\");\n        addComment(1, \"Aleksandr\", \"Hello, this is the first comment!\");\n    }\n \n    function createPost(string memory _title, string memory _author, string memory _message, string memory _hashtag) public {\n        postCount ++;\n        Post storage post = posts[postCount];\n        post.id = postCount;\n        post.title = _title;\n        post.author = _author;\n        post.message = _message;\n        post.hashtag = _hashtag;\n        post.commentCount = 0;\n        post.ban = false;\n    }\n\n    function addComment(uint _postID, string memory _comment_author, string memory _comment_message) public {\n        Post storage post = posts[_postID];\n        post.commentCount++;\n        post.comments[post.commentCount] = Comment({commentID: post.commentCount, commentAuthor:_comment_author, commentMessage: _comment_message, commentBan: false});\n    }\n    \n    function getComment(uint postID, uint commentID) public view returns(uint id, string memory author, string memory message, bool ban) {\n        Comment storage comment = posts[postID].comments[commentID];\n        id = comment.commentID;\n        author = comment.commentAuthor;\n        message = comment.commentMessage;\n        ban = comment.commentBan;\n        return (id, author, message, ban);\n    }\n\n    function banPost(uint postID) public {\n        posts[postID].ban = !posts[postID].ban;\n    }\n\n    function banComment(uint postID, uint commentID) public {\n        posts[postID].comments[commentID].commentBan = !posts[postID].comments[commentID].commentBan;\n    }\n}\n",
  "sourcePath": "/Users/amolchagin/Desktop/Projects/dVox-backend/contracts/PostContract.sol",
  "compiler": {
    "name": "solc",
    "version": "0.8.7+commit.e28d00a7.Emscripten.clang"
  },
  "schemaVersion": "3.4.3",
  "updatedAt": "2021-08-23T20:55:46.152Z",
  "networkType": "ethereum",
  "devdoc": {
    "kind": "dev",
    "methods": {},
    "version": 1
  },
  "userdoc": {
    "kind": "user",
    "methods": {},
    "version": 1
  }
}